S01B000065787465726E616C20696E74657272757074732E7372656326
S11300000C942A000C94E2010C9447000C944700D1
S11300100C9447000C9447000C9447000C94470040
S11300200C9447000C9447000C9447000C94470030
S11300300C9447000C9447000C9447000C94470020
S11300400C9447000C9447000C9447000C94470010
S11300500C94470011241FBECFE5D8E0DEBFCDBF0E
S113006010E0A0E6B0E0E6E2F4E002C005900D92F4
S1130070A036B107D9F720E0A0E6B0E001C01D9298
S1130080A036B207E1F70E94CE010C9411020C9441
S1130090000040E00E94620008950E944201089519
S11300A041E00E946200089541E00E94D200089558
S11300B040E00E94D20008950E94970108950E9492
S11300C042010895823419F118F4813439F0089505
S11300D08334B1F1843409F44CC00895413059F4A7
S11300E02AB381E090E002C0880F991F6A95E2F775
S11300F0822B8ABB08952AB381E090E002C0880F66
S1130100991F6A95E2F7809582238ABB089541304E
S113011059F427B381E090E002C0880F991F6A95D3
S1130120E2F7822B87BB089527B381E090E002C0F9
S1130130880F991F6A95E2F78095822387BB0895FB
S1130140413059F424B381E090E002C0880F991F34
S11301506A95E2F7822B84BB089524B381E090E092
S113016002C0880F991F6A95E2F78095822384BBA9
S11301700895413059F421B381E090E002C0880F22
S1130180991F6A95E2F7822B81BB089521B381E020
S113019090E002C0880F991F6A95E2F78095822348
S11301A081BB0895823419F118F4813439F008952B
S11301B08334B1F1843409F44CC00895413059F4C6
S11301C02BB381E090E002C0880F991F6A95E2F793
S11301D0822B8BBB08952BB381E090E002C0880F83
S11301E0991F6A95E2F7809582238BBB089541306D
S11301F059F428B381E090E002C0880F991F6A95F2
S1130200E2F7822B88BB089528B381E090E002C016
S1130210880F991F6A95E2F78095822388BB089519
S1130220413059F425B381E090E002C0880F991F52
S11302306A95E2F7822B85BB089525B381E090E0AF
S113024002C0880F991F6A95E2F78095822385BBC7
S11302500895413059F422B381E090E002C0880F40
S1130260991F6A95E2F7822B82BB089522B381E03D
S113027090E002C0880F991F6A95E2F78095822367
S113028082BB08958234D9F018F4813431F04DC022
S1130290833439F18434B9F148C029B381E090E062
S11302A0062E02C0880F991F0A94E2F730E08223D9
S11302B0932302C0959587956A95E2F7089526B32E
S11302C081E090E0062E02C0880F991F0A94E2F79D
S11302D030E08223932302C0959587956A95E2F7CF
S11302E0089523B381E090E0062E02C0880F991F81
S11302F00A94E2F730E08223932302C09595879510
S11303006A95E2F7089520B381E090E0062E02C0DA
S1130310880F991F0A94E2F730E08223932302C0E6
S1130320959587956A95E2F7089580E0089582345B
S1130330A1F018F4813431F008958334C9F0843481
S113034011F108952BB381E090E002C0880F991F4A
S11303506A95E2F782278BBB089528B381E090E089
S113036002C0880F991F6A95E2F7822788BB089517
S113037025B381E090E002C0880F991F6A95E2F7E7
S1130380822785BB089522B381E090E002C0880FE4
S1130390991F6A95E2F7822782BB089567E084E497
S11303A00E94500062E084E40E944900789485B77A
S11303B0836085BF8BB780648BBF67E084E40E9451
S11303C05800FBCF1F920F920FB60F9211242F9358
S11303D03F934F935F936F937F938F939F93AF93C9
S11303E0BF93EF93FF9367E084E40E9454002FEFE0
S11303F089E698E1215080409040E1F700C0000078
S1130400FF91EF91BF91AF919F918F917F916F91E8
S11304105F914F913F912F910F900FBE0F901F90BE
S10904201895F894FFCFCB
S9030000FC
