:020000040800F2
:10000000002800202502000875020008750200087B
:100010007502000875020008750200080000000063
:100020000000000000000000000000007502000851
:100030007502000800000000750200087502000843
:1000400075020008750200087502000875020008B4
:100050007502000875020008790200089D02000878
:10006000C1020008E5020008090300087502000843
:100070007502000875020008750200087502000884
:100080007502000875020008750200087502000874
:100090007502000875020008750200082D030008AB
:1000A0007502000875020008750200087502000854
:1000B0007502000875020008750200087502000844
:1000C0007502000875020008750200087502000834
:1000D0007502000899040008AD040008C104000876
:1000E000D503000875020008000000007502000832
:1000F0007502000875020008750200087502000804
:1001000075020008750200087502000875020008F3
:1001100075020008750200087502000875020008E3
:1001200075020008750200087502000875020008D3
:1001300010B5054C237833B9044B13B10448AFF321
:1001400000800123237010BD00000020000000008B
:100150008807000808B5034B1BB103490348AFF3F8
:10016000008008BD0000000004000020880700088F
:1001700080B582B000AF284B9B69274A43F0040347
:100180009361254B9B69244A43F008039361022342
:10019000BB800123BB713B1D1946204800F0FDF9CF
:1001A0004FF40053BB803B1D19461C4800F0F5F985
:1001B0000223BB800423BB710123FB713B1D194645
:1001C000174800F0EAF94FF40053BB803B1D194675
:1001D000134800F0E2F90221104800F088FA0346C3
:1001E000002B0BD102210E4800F098FA00BF02212B
:1001F0000A4800F07CFA0346002BF8D04FF4005177
:10020000064800F074FA0346012BE4D14FF4005184
:10021000034800F083FADEE70010024000080140C6
:10022000000C01400D488546AFF300800C480D4995
:100230000D4A002302E0D458C4500433C4188C4241
:10024000F9D30A4A0A4C002301E013600432A242A7
:10025000FBD300F075FAFFF78BFFFEE700280020C4
:100260000000002000000020A80700080000002077
:100270005C000020FEE7000080B500AF054B5B6925
:10028000044A43F001035361034B1B68984700BFC6
:1002900080BD00BF000401402000002080B500AFF9
:1002A000054B5B69044A43F002035361034B5B68EF
:1002B000984700BF80BD00BF00040140200000201F
:1002C00080B500AF054B5B69044A43F004035361FA
:1002D000034B9B68984700BF80BD00BF00040140EE
:1002E0002000002080B500AF054B5B69044A43F055
:1002F00008035361034BDB68984700BF80BD00BF14
:10030000000401402000002080B500AF054B5B6970
:10031000044A43F010035361034B1B69984700BF25
:1003200080BD00BF000401402000002080B500AF68
:10033000264B5B6903F02003002B08D0234B5B693D
:10034000224A43F020035361214B5B6998471F4BBE
:100350005B6903F04003002B08D01C4B5B691B4A10
:1003600043F0400353611A4B9B699847174B5B69F5
:1003700003F08003002B08D0144B5B69134A43F051
:1003800080035361124BDB699847104B5B6903F4A0
:100390008073002B08D00D4B5B690C4A43F48073CB
:1003A00053610B4B1B6A9847084B5B6903F400735E
:1003B000002B08D0054B5B69044A43F4007353617A
:1003C000034B5B6A984700BF80BD00BF000401403B
:1003D0002000002080B500AF2D4B5B6903F48063E3
:1003E000002B08D02A4B5B69294A43F48063536190
:1003F000284B9B6A9847264B5B6903F40063002BEC
:1004000008D0234B5B69224A43F400635361214BBC
:10041000DB6A98471E4B5B6903F48053002B08D0BE
:100420001B4B5B691A4A43F480535361194B1B6B96
:100430009847174B5B6903F40053002B08D0144B0B
:100440005B69134A43F400535361124B5B6B98474B
:100450000F4B5B6903F48043002B08D00C4B5B69A6
:100460000B4A43F4804353610A4B9B6B9847084BFC
:100470005B6903F40043002B08D0054B5B69044A19
:1004800043F400435361034BDB6B984700BF80BDCF
:10049000000401402000002080B500AF024B1B6823
:1004A0001B69984700BF80BD1C00002080B500AFCD
:1004B000024B1B681B69984700BF80BD1C000020D1
:1004C00080B500AF024B1B681B69984700BF80BD19
:1004D0001C00002080B483B000AF0346FB80FB8883
:1004E000802B42D0802B11DC082B36D0082B06DC69
:1004F000022B2ED0042B2ED0012B28D047E0202B0E
:100500002FD0402B2FD0102B29D040E0B3F5006F17
:1005100033D0B3F5006F09DCB3F5007F29D0B3F514
:10052000806F28D0B3F5807F21D030E0B3F5005F35
:1005300027D0B3F5005F03DCB3F5805F1FD026E062
:10054000B3F5804F1FD0B3F5004F1ED01FE000233E
:100550001EE004231CE008231AE00C2318E01023FB
:1005600016E0142314E0182312E01C2310E00023EB
:100570000EE004230CE008230AE00C2308E010231B
:1005800006E0142304E0182302E01C2300E000230B
:1005900018460C37BD4680BC704790B585B000AF9B
:1005A000786039600023FB600023FB723B681B8886
:1005B000FF2B01D87B6801E07B680433FB603B685C
:1005C0001B881846FFF786FF03461A460F23934001
:1005D000DA43FB681B681A40FB681A603B689B782B
:1005E000042B0BD03B689B78052B07D03B689B788E
:1005F000072B03D03B689B78062B1CD13B689B786C
:10060000043B9B005AB23B68DB785BB213435BB29E
:10061000DBB203F00F03FB72FC7A3B681B881846C1
:10062000FFF758FF034604FA03F2FB681B681A43FE
:10063000FB681A6057E03B689B78002B03D03B684F
:100640009B78012B15D13B689B789B00DBB203F0B4
:100650000F03FB72FC7A3B681B881846FFF73AFFD2
:10066000034604FA03F2FB681B681A43FB681A602E
:1006700039E03B689B78082B10D10423FB72FC7A8D
:100680003B681B881846FFF725FF034604FA03F270
:10069000FB681B681A43FB681A6024E00823FB729E
:1006A000FC7A3B681B881846FFF714FF034604FAE0
:1006B00003F2FB681B681A43FB681A603B689B786F
:1006C000022B07D17B68DB683A6812881A437B6883
:1006D000DA6008E07B68DB683A681288D2431A4027
:1006E0007B68DA60FFE700BF1437BD4690BD80B479
:1006F00085B000AF78600B467B807B689A687B880A
:100700001340002B02D00123FB7301E00023FB7395
:10071000FB7B18461437BD4680BC704780B483B05D
:1007200000AF78600B467B807B68DA687B885A4034
:100730007B68DA6000BF0C37BD4680BC70470000A4
:1007400070B500250C4E0D4CA41BA410A54209D178
:1007500000F01AF800250A4E0A4CA41BA410A5426A
:1007600005D170BD56F8253098470135EEE756F8AB
:10077000253098470135F2E7A0070008A0070008D8
:10078000A0070008A4070008F8B500BFF8BC08BC23
:100790009E467047F8B500BFF8BC08BC9E4670473F
:0407A00055010008F7
:0407A4003101000817
:0400000508000225C8
:00000001FF
