:100000000C942A000C9447000C9447000C94470071
:100010000C9447000C9447000C9447000C94470044
:100020000C9447000C9447000C9447000C94470034
:100030000C9447000C9447000C9447000C94470024
:100040000C9447000C9447000C9447000C94470014
:100050000C94470011241FBECFE5D8E0DEBFCDBF12
:1000600010E0A0E6B0E0E0E0F9E002C005900D92FB
:10007000A83CB107D9F720E0A8ECB0E001C01D9280
:10008000AC3CB207E1F70E947F030C947E040C9411
:10009000000084E460E041E00E94DD0084E461E06F
:1000A00041E00E94DD0084E462E041E00E94DD0066
:1000B00084E463E041E00E94DD0084E464E040E029
:1000C0000E94DD0084E465E040E00E94DD0084E4FD
:1000D00066E040E00E94DD0084E467E040E00E94CA
:1000E000DD0084E464E041E00E94250284E465E0F0
:1000F00041E00E94250284E466E041E00E9425027E
:1001000084E467E041E00E94250208950F931F9365
:10011000CF93DF93CDB7DEB760970FB6F894DEBF0D
:100120000FBECDBFDE011196E0E6F0E080E1019068
:100130000D928150E1F700E084E460E041E00E942C
:100140004D0184E461E041E00E944D0184E462E0FD
:1001500041E00E944D0184E463E041E00E944D01D2
:1001600084E4602F40E00E944D0110E0612F6C5F3D
:1001700084E40E94BD01882361F4E02FF0E0EE0FDB
:10018000FF1FEE0FFF1FE10FF11DEC0FFD1F81811F
:1001900004C01F5F143051F70BC060960FB6F8947F
:1001A000DEBF0FBECDBFDF91CF911F910F9108959C
:1001B0000F5F043009F68FEFF0CF823419F118F495
:1001C000813439F008958334B1F1843409F44CC09A
:1001D0000895413059F42AB381E090E002C0880FBD
:1001E000991F6A95E2F7822B8ABB08952AB381E0B2
:1001F00090E002C0880F991F6A95E2F780958223EC
:100200008ABB0895413059F427B381E090E002C0E1
:10021000880F991F6A95E2F7822B87BB089527B351
:1002200081E090E002C0880F991F6A95E2F78095FF
:10023000822387BB0895413059F424B381E090E0D4
:1002400002C0880F991F6A95E2F7822B84BB08953C
:1002500024B381E090E002C0880F991F6A95E2F70D
:100260008095822384BB0895413059F421B381E005
:1002700090E002C0880F991F6A95E2F7822B81BB3C
:10028000089521B381E090E002C0880F991F6A951C
:10029000E2F78095822381BB0895823419F118F426
:1002A000813439F008958334B1F1843409F44CC0B9
:1002B0000895413059F42BB381E090E002C0880FDB
:1002C000991F6A95E2F7822B8BBB08952BB381E0CF
:1002D00090E002C0880F991F6A95E2F7809582230B
:1002E0008BBB0895413059F428B381E090E002C0FF
:1002F000880F991F6A95E2F7822B88BB089528B36F
:1003000081E090E002C0880F991F6A95E2F780951E
:10031000822388BB0895413059F425B381E090E0F1
:1003200002C0880F991F6A95E2F7822B85BB08955A
:1003300025B381E090E002C0880F991F6A95E2F72B
:100340008095822385BB0895413059F422B381E022
:1003500090E002C0880F991F6A95E2F7822B82BB5A
:10036000089522B381E090E002C0880F991F6A953A
:10037000E2F78095822382BB08958234D9F018F485
:10038000813431F04DC0833439F18434B9F148C03F
:1003900029B381E090E0062E02C0880F991F0A94CD
:1003A000E2F730E08223932302C0959587956A9502
:1003B000E2F7089526B381E090E0062E02C0880F90
:1003C000991F0A94E2F730E08223932302C09595A7
:1003D00087956A95E2F7089523B381E090E0062EB1
:1003E00002C0880F991F0A94E2F730E0822393231A
:1003F00002C0959587956A95E2F7089520B381E04C
:1004000090E0062E02C0880F991F0A94E2F730E0B0
:100410008223932302C0959587956A95E2F7089504
:1004200080E00895823459F018F4813431F0089551
:10043000833439F0843439F008956BBB089568BB78
:10044000089565BB089562BB0895823419F118F4CC
:10045000813439F008958334B1F1843409F44CC007
:100460000895413059F42BB381E090E002C0880F29
:10047000991F6A95E2F7822B8BBB08952BB381E01D
:1004800090E002C0880F991F6A95E2F78095822359
:100490008BBB0895413059F428B381E090E002C04D
:1004A000880F991F6A95E2F7822B88BB089528B3BD
:1004B00081E090E002C0880F991F6A95E2F780956D
:1004C000822388BB0895413059F425B381E090E040
:1004D00002C0880F991F6A95E2F7822B85BB0895A9
:1004E00025B381E090E002C0880F991F6A95E2F77A
:1004F0008095822385BB0895413059F422B381E071
:1005000090E002C0880F991F6A95E2F7822B82BBA8
:10051000089522B381E090E002C0880F991F6A9588
:10052000E2F78095822382BB08958EBB9FBB6DBB93
:10053000E29AE19AE199FECF08958EBB9FBBE09AC3
:100540008DB3089541E060E082E40E944D018FE99F
:100550009FE00197F1F700C0000040E060E082E416
:100560000E944D018FE99FE00197F1F700C0000064
:100570000895682F81E40E94120240E061E082E465
:100580000E944D010E94A2028FEC97E00197F1F7C3
:1005900000C0000008952FEF81EE94E021508040CC
:1005A0009040E1F700C0000041E060E081E40E947B
:1005B000DD0041E061E081E40E94DD0041E062E0B5
:1005C00081E40E94DD0041E063E081E40E94DD00FF
:1005D00041E064E081E40E94DD0041E065E081E407
:1005E0000E94DD0041E066E081E40E94DD0041E020
:1005F00067E081E40E94DD0041E060E082E40E9467
:10060000DD0041E062E082E40E94DD0041E061E063
:1006100082E40E94DD0040E062E082E40E944D013D
:1006200088E30E94B9028FEC97E00197F1F700C0D0
:1006300000008EE00E94B9028FEC97E00197F1F77D
:1006400000C0000081E00E94B9028FE19EE40197A2
:10065000F1F700C0000086E00E94B9028FEC97E03D
:100660000197F1F700C000000895682F81E40E940F
:10067000120241E061E082E40E944D010E94A20268
:100680008FEC97E00197F1F700C000000895CF9339
:10069000DF93EC018881882331F021960E94350395
:1006A00089918111FBCFDF91CF91089581E00E9464
:1006B000B9028FE19EE40197F1F700C000000895B0
:1006C0009FEF980F923070F49FEF960F903160F487
:1006D000813019F42FE7260F08C0823031F42FEB58
:1006E000260F03C020E801C020E8822F0E94B90233
:1006F0008FEC97E00197F1F700C000000895DF92BA
:10070000EF92FF920F931F93CF93DF930E944900C4
:100710000E94CB0280E290E00E949D028F3F9105F3
:1007200009F0D6C080E790E00E94470301E210E0A4
:100730000E948600C82F8F3FD9F30E9435032FEF08
:1007400084E39CE0215080409040E1F700C000002D
:1007500069EE600F81E00E9460038AE20E94350327
:10076000EFEFF4E32CE0E150F0402040E1F700C06F
:1007700000006C2F70E0C8010E9495020F5F1F4FB0
:1007800005321105A9F660E070E080E290E00E9479
:1007900095029EC0F70103830283018300830E94B8
:1007A00056038AE790E00E944703C8ECD0E01CE0C3
:1007B0000E94860088838F3FD9F30E943503FFEFA4
:1007C00024E38CE0F15020408040E1F700C00000BD
:1007D000612F81E00E9460038AE20E9435039FEF4F
:1007E000E4E3FCE09150E040F040E1F700C000009D
:1007F0001F5F21961031E1F681E290E00E949D0298
:10080000F701208130E08217930769F582E290E0DA
:100810000E949D02F701218130E08217930719F5AC
:1008200083E290E00E949D02F701228130E082176E
:100830009307C9F484E290E00E949D02F7012381AE
:1008400030E08217930779F40E94560386E890E01F
:100850000E94470361E082E00E94600385E990E026
:100860000E94470341C0F0E3DF1619F10E945603CE
:1008700081EA90E00E9447032FEF89E698E121503A
:1008800080409040E1F700C000000E94560380EBDA
:1008900090E00E9447038D2D0E943503EFEFF9E6AB
:1008A00028E1E150F0402040E1F700C00000DA9478
:1008B00071CF0E94560381EA90E00E94470361E0F5
:1008C00082E00E9460038CEB90E00E9447030CC022
:1008D0000F2EF1E3DF2EF02D0F2EF8ECEF2EF0E0CF
:1008E000FF2EF02D0FEF56CF80E090E0DF91CF91FB
:1008F0001F910F91FF90EF90DF900895F894FFCF34
:100900003738392F3435362A3132332D41303D2BAB
:1009100073657420706173733A00636865636B205C
:10092000706173733A0072696768742070617373E1
:10093000776F72640073616665206F70656E6564C1
:100940000077726F6E672070617373776F726400E7
:100950007472696573206C6566743A0073616665CC
:0809600020636C6F73656400F5
:00000001FF
