S01B0000736C6964655F385F696E746572666163696E672E7372656378
S11300000C9496000C94A0000C94A0000C94A000F6
S11300100C94A0000C94A0000C94A0000C94A000DC
S11300200C94A0000C94A0000C94A0000C94A000CC
S11300300C94A0000C94A0000C94A0000C94A000BC
S11300400C9418020C94A0000C94A0000C94A00032
S11300500C94A000FA0013012C0145015D015D011F
S11300605D015D015D015D015D015D015D015D019C
S11300705D015D015D015D015D015D015D015D018C
S11300805D015D015D015D015D015D015D015D017C
S11300905D015D01FA0013012C0145016A01830130
S11300A09C01B501CD01CD01CD01CD01CD01CD0125
S11300B0CD01CD01CD01CD01CD01CD01CD01CD01CC
S11300C0CD01CD01CD01CD01CD01CD01CD01CD01BC
S11300D0CD01CD01CD01CD01CD01CD016A01830159
S11300E09C01B501D901DB01DD01DF01E001E00183
S11300F0E001E001E001E001E001E001E001E001F4
S1130100E001E001E001E001E001E001E001E001E3
S1130110E001E001E001E001E001E001E001E001D3
S1130120E001E001D901DB01DD01DF0111241FBE83
S1130130CFE5D8E0DEBFCDBF0E94F0010C944D02A4
S11301400C940000813059F018F0833061F011C034
S113015087B18F7B87B987B18F7787B90AC087B199
S1130160806487B906C087B1806487B987B1806825
S113017087B986B1806886B986B1846086B986B14C
S1130180826086B9613031F486B1806286B980B705
S1130190806480BF413079F487B18E7F87B987B19D
S11301A08D7F87B987B18B7F87B987B1877F87B9FF
S11301B087B1806187B9213021F4789486B1886051
S11301C086B9089586B1806486B93699FECF24B184
S11301D085B190E0982F8827822B089590E0FC0148
S11301E0E154F109E432F10508F067C0E65DFF4F20
S11301F00C944702413059F42AB381E090E002C0E4
S1130200880F991F6A95E2F7822B8ABB08952AB357
S113021081E090E002C0880F991F6A95E2F780950B
S113022082238ABB0895413059F427B381E090E0DA
S113023002C0880F991F6A95E2F7822B87BB089545
S113024027B381E090E002C0880F991F6A95E2F716
S11302508095822387BB0895413059F424B381E00B
S113026090E002C0880F991F6A95E2F7822B84BB45
S1130270089524B381E090E002C0880F991F6A9525
S1130280E2F78095822384BB0895413059F421B369
S113029081E090E002C0880F991F6A95E2F7822BF3
S11302A081BB089521B381E090E002C0880F991FBB
S11302B06A95E2F78095822381BB089590E0FC0162
S11302C0E154F109E432F10508F067C0E25BFF4F45
S11302D00C944702413059F42BB381E090E002C002
S11302E0880F991F6A95E2F7822B8BBB08952BB375
S11302F081E090E002C0880F991F6A95E2F780952B
S113030082238BBB0895413059F428B381E090E0F7
S113031002C0880F991F6A95E2F7822B88BB089563
S113032028B381E090E002C0880F991F6A95E2F734
S11303308095822388BB0895413059F425B381E028
S113034090E002C0880F991F6A95E2F7822B85BB63
S1130350089525B381E090E002C0880F991F6A9543
S1130360E2F78095822385BB0895413059F422B386
S113037081E090E002C0880F991F6A95E2F7822B12
S113038082BB089522B381E090E002C0880F991FD8
S11303906A95E2F78095822382BB089590E0FC0180
S11303A0E154F109E432F10558F4EE58FF4F0C948E
S11303B047026ABB089567BB089564BB089561BB97
S11303C0089541E00E94EE00089541E00E945E011C
S11303D0089540E00E945E0108950E94CE010895B0
S11303E021E040E060E081E00E94A2006FEF83E43E
S11303F00E94ED0162E082E60E94E10160E082E693
S11304000E94E10161E082E60E94E10162E082E48F
S11304100E94E9012FEF89E698E121508040904045
S1130420E1F700C000000E94E20085BB98BBEECF5C
S11304301F920F920FB60F9211242F933F934F9355
S11304405F936F937F938F939F93AF93BF93EF9338
S1130450FF9362E082E40E94E5012FEF89E698E1D0
S1130460215080409040E1F700C00000FF91EF91DF
S1130470BF91AF919F918F917F916F915F914F91B8
S11304803F912F910F900FBE0F901F901895EE0F74
S1110490FF1F0590F491E02D0994F894FFCF1E
S9030000FC
