:020000040800F2
:100000000028002091020008E1020008E102000837
:10001000E1020008E1020008E1020008000000001F
:10002000000000000000000000000000E1020008E5
:10003000E102000800000000E1020008E1020008FF
:10004000E1020008E1020008E1020008E102000804
:10005000E1020008E1020008E1020008E1020008F4
:10006000E1020008E1020008E1020008E1020008E4
:10007000E1020008E1020008E1020008E1020008D4
:10008000E1020008E1020008E1020008E1020008C4
:10009000E1020008E1020008E1020008E1020008B4
:1000A000E1020008E1020008E1020008E1020008A4
:1000B000E1020008E1020008E1020008E102000894
:1000C000E1020008E1020008E1020008E102000884
:1000D000E1020008E1020008E1020008E102000874
:1000E000E1020008E102000800000000E10200084F
:1000F000E1020008E1020008E1020008E102000854
:10010000E1020008E1020008E1020008E102000843
:10011000E1020008E1020008E1020008E102000833
:10012000E1020008E1020008E1020008E102000823
:1001300010B5054C237833B9044B13B10448AFF321
:1001400000800123237010BD00000020000000008B
:100150002C03000808B5034B1BB103490348AFF358
:10016000008008BD00000000040000202C030008EF
:1001700080B400AF074B1B68064A43F004031360CA
:10018000044B1B68034A43F00803136000BFBD46DD
:1001900080BC70471810024080B400AF134B00229F
:1001A0001A60134B00221A60124B00221A60124B85
:1001B00000221A600D4B1B680C4A43F010031360B9
:1001C0000C4B1B680B4A43F0400313600A4B1B683F
:1001D000094A43F480031360054B1B68044A43F447
:1001E0008013136000BFBD4680BC7047000C014007
:1001F000040C0140000801400408014080B485B0AF
:1002000000AF78600023FB600BE00023BB6002E0DE
:10021000BB680133BB60BB68FE2BF9D9FB680133B7
:10022000FB60FA687B689A42EFD300BF1437BD4683
:1002300080BC704780B500AFFFF79AFFFFF7ACFFB7
:10024000114B1B6803F00203002B0CD10F4B1B68F2
:100250000E4A83F00203136000BF0B4B1B6803F0D0
:100260000203002BF9D0084B1B685B0B03F0010362
:10027000012B05D1054B1B68044A83F4005313601E
:100280000320FFF7BBFFDBE7080801400C0C01402F
:100290000D488546AFF300800C480D490D4A0023F8
:1002A00002E0D458C4500433C4188C42F9D30A4A2B
:1002B0000A4C002301E013600432A242FBD300F099
:1002C00011F8FFF7B7FFFEE700280020000000202C
:1002D000000000204C030008000000201C0000204B
:1002E000FEE7000070B500250C4E0D4CA41BA410B9
:1002F000A54209D100F01AF800250A4E0A4CA41BA9
:10030000A410A54205D170BD56F825309847013597
:10031000EEE756F8253098470135F2E74403000828
:10032000440300084403000848030008F8B500BF70
:10033000F8BC08BC9E467047F8B500BFF8BC08BCC6
:040340009E4670471E
:040344005501000857
:040348003101000877
:04000005080002915C
:00000001FF
