:100000000C9472000C9487000C9487000C94870069
:100010000C9487000C9487000C9487000C94870044
:100020000C9487000C9487000C9487000C94870034
:100030000C9487000C9487000C9487000C94870024
:100040000C9487000C9487000C9487000C94870014
:100050000C9487009500AE00C700E000F800F8009F
:10006000F800F800F800F800F800F800F800F800D0
:10007000F800F800F800F800F800F800F800F800C0
:10008000F800F800F800F800F800F800F800F800B0
:10009000F800F8009500AE00C700E00005010C0173
:1000A00013011A012001200120012001200120015B
:1000B0002001200120012001200120012001200138
:1000C0002001200120012001200120012001200128
:1000D00020012001200120012001200105010C0147
:1000E00013011A0111241FBECFE5D8E0DEBFCDBF3A
:1000F00010E0A0E6B0E0E6EBF2E002C005900D9261
:10010000A036B107D9F70E9421010C9459010C9433
:10011000000090E0FC01E154F109E432F10508F03F
:1001200067C0E65DFF4F0C945301413059F42AB388
:1001300081E090E002C0880F991F6A95E2F7822B58
:100140008ABB08952AB381E090E002C0880F991F0E
:100150006A95E2F7809582238ABB0895413059F46D
:1001600027B381E090E002C0880F991F6A95E2F7FB
:10017000822B87BB089527B381E090E002C0880FEF
:10018000991F6A95E2F78095822387BB08954130D5
:1001900059F424B381E090E002C0880F991F6A955A
:1001A000E2F7822B84BB089524B381E090E002C083
:1001B000880F991F6A95E2F78095822384BB089582
:1001C000413059F421B381E090E002C0880F991FBB
:1001D0006A95E2F7822B81BB089521B381E090E01C
:1001E00002C0880F991F6A95E2F78095822381BB30
:1001F00008956F7090E0FC01E154F109E432F105DB
:10020000F8F4E25BFF4F0C9453018BB3807F8BBB00
:100210008BB3682B6BBB089588B3807F88BB88B392
:10022000682B68BB089585B3807F85BB85B3682B39
:1002300065BB089582B3807F82BB82B3682B62BBAB
:10024000089583E60E943901C0E0D0E00EC06C2F13
:1002500083E60E9450012FEF85EA9EE02150804006
:100260009040E1F700C000002196CA30D10578F334
:10027000EBCFCF93C82F41E060E00E94890041E0BE
:1002800061E08C2F0E94890041E062E08C2F0E9487
:10029000890041E063E08C2F0E948900CF9108958E
:1002A0000E94F9000895EE0FFF1F0590F491E02DD4
:0602B0000994F894FFCF51
:00000001FF
