S01800005265616457726974655F454550524F4D2E737265635E
S11300000C9472000C947C000C947C000C947C0086
S11300100C947C000C947C000C947C000C947C006C
S11300200C947C000C947C000C947C000C947C005C
S11300300C947C000C947C000C947C000C947C004C
S11300400C947C000C947C000C947C000C947C003C
S11300500C947C008A00A300BC00D500ED00ED00E8
S1130060ED00ED00ED00ED00ED00ED00ED00ED0024
S1130070ED00ED00ED00ED00ED00ED00ED00ED0014
S1130080ED00ED00ED00ED00ED00ED00ED00ED0004
S1130090ED00ED008A00A300BC00D500FA001301B6
S11300A02C0145015D015D015D015D015D015D01A5
S11300B05D015D015D015D015D015D015D015D014C
S11300C05D015D015D015D015D015D015D015D013C
S11300D05D015D015D015D015D015D01FA001301DA
S11300E02C01450111241FBECFE5D8E0DEBFCDBFF2
S11300F00E9479010C94AB010C94000090E0FC0187
S1130100E154F109E432F10508F067C0E65DFF4F00
S11301100C94A501413059F42AB381E090E002C067
S1130120880F991F6A95E2F7822B8ABB08952AB338
S113013081E090E002C0880F991F6A95E2F78095EC
S113014082238ABB0895413059F427B381E090E0BB
S113015002C0880F991F6A95E2F7822B87BB089526
S113016027B381E090E002C0880F991F6A95E2F7F7
S11301708095822387BB0895413059F424B381E0EC
S113018090E002C0880F991F6A95E2F7822B84BB26
S1130190089524B381E090E002C0880F991F6A9506
S11301A0E2F78095822384BB0895413059F421B34A
S11301B081E090E002C0880F991F6A95E2F7822BD4
S11301C081BB089521B381E090E002C0880F991F9C
S11301D06A95E2F78095822381BB089590E0FC0143
S11301E0E154F109E432F10508F067C0E25BFF4F26
S11301F00C94A501413059F42BB381E090E002C086
S1130200880F991F6A95E2F7822B8BBB08952BB355
S113021081E090E002C0880F991F6A95E2F780950B
S113022082238BBB0895413059F428B381E090E0D8
S113023002C0880F991F6A95E2F7822B88BB089544
S113024028B381E090E002C0880F991F6A95E2F715
S11302508095822388BB0895413059F425B381E009
S113026090E002C0880F991F6A95E2F7822B85BB44
S1130270089525B381E090E002C0880F991F6A9524
S1130280E2F78095822385BB0895413059F422B367
S113029081E090E002C0880F991F6A95E2F7822BF3
S11302A082BB089522B381E090E002C0880F991FB9
S11302B06A95E2F78095822382BB08958EBB9FBB2B
S11302C06DBB8CB384608CBB8CB382608CBBE199B6
S11302D0FECF08958EBB9FBB8CB381608CBB8DB366
S11302E0089541E00E947E00089541E00E94EE00DE
S11302F0089560E081E60E94710163E285E590E083
S11303000E945E0165E286E590E00E945E0160E382
S113031087E590E00E945E0185E590E00E946A0115
S1130320D82F86E590E00E946A01C82F87E590E007
S11303300E946A01D33241F4C53231F4803321F48E
S113034060E081E60E947501FFCFEE0FFF1F05906C
S10D0350F491E02D0994F894FFCF16
S9030000FC
