S01600006C65635F61737367696E6D656E742E7372656342
S11300000C9472000C947C000C947C000C947C0086
S11300100C947C000C947C000C947C000C947C006C
S11300200C947C000C947C000C947C000C947C005C
S11300300C947C000C947C000C947C000C947C004C
S11300400C947C000C947C000C947C000C947C003C
S11300500C947C008A00A300BC00D500ED00ED00E8
S1130060ED00ED00ED00ED00ED00ED00ED00ED0024
S1130070ED00ED00ED00ED00ED00ED00ED00ED0014
S1130080ED00ED00ED00ED00ED00ED00ED00ED0004
S1130090ED00ED008A00A300BC00D500FA001301B6
S11300A02C0145015D015D015D015D015D015D01A5
S11300B05D015D015D015D015D015D015D015D014C
S11300C05D015D015D015D015D015D015D015D013C
S11300D05D015D015D015D015D015D01FA001301DA
S11300E02C01450111241FBECFE5D8E0DEBFCDBFF2
S11300F00E945E010C94AD010C94000090E0FC01A0
S1130100E154F109E432F10508F067C0E65DFF4F00
S11301100C94A701413059F42AB381E090E002C065
S1130120880F991F6A95E2F7822B8ABB08952AB338
S113013081E090E002C0880F991F6A95E2F78095EC
S113014082238ABB0895413059F427B381E090E0BB
S113015002C0880F991F6A95E2F7822B87BB089526
S113016027B381E090E002C0880F991F6A95E2F7F7
S11301708095822387BB0895413059F424B381E0EC
S113018090E002C0880F991F6A95E2F7822B84BB26
S1130190089524B381E090E002C0880F991F6A9506
S11301A0E2F78095822384BB0895413059F421B34A
S11301B081E090E002C0880F991F6A95E2F7822BD4
S11301C081BB089521B381E090E002C0880F991F9C
S11301D06A95E2F78095822381BB089590E0FC0143
S11301E0E154F109E432F10508F067C0E25BFF4F26
S11301F00C94A701413059F42BB381E090E002C084
S1130200880F991F6A95E2F7822B8BBB08952BB355
S113021081E090E002C0880F991F6A95E2F780950B
S113022082238BBB0895413059F428B381E090E0D8
S113023002C0880F991F6A95E2F7822B88BB089544
S113024028B381E090E002C0880F991F6A95E2F715
S11302508095822388BB0895413059F425B381E009
S113026090E002C0880F991F6A95E2F7822B85BB44
S1130270089525B381E090E002C0880F991F6A9524
S1130280E2F78095822385BB0895413059F422B367
S113029081E090E002C0880F991F6A95E2F7822BF3
S11302A082BB089522B381E090E002C0880F991FB9
S11302B06A95E2F78095822382BB089541E060E06D
S11302C081E60E947E0041E061E081E60E947E00BA
S11302D041E062E081E60E947E0041E060E081E46A
S11302E00E94EE0040E062E081E40E94EE002FE311
S11302F08DE093E0215080409040E1F700C0000081
S113030040E060E081E40E94EE0041E061E081E4CD
S11303100E94EE002FE38DE093E021508040904056
S1130320E1F700C0000040E061E081E40E94EE00DB
S113033041E062E081E40E94EE002FE38DE093E06F
S1130340215080409040E1F700C00000C6CFEE0F7E
S1110350FF1F0590F491E02D0994F894FFCF5F
S9030000FC
