S0200000756E6974365F6C6573736F6E345F61737367696E6D656E742E737265634F
S11300000C94D6000C9470020C94A0020C94D002B0
S11300100C94E0000C94E0000C94E0000C94E000DC
S11300200C94E0000C94E0000C94E0000C94E000CC
S11300300C94E0000C94E0000C94E0000C94E000BC
S11300400C94E0000C94E0000C94E0000C94E000AC
S11300500C94E000EE000701200139015101510127
S113006051015101510151015101510151015101FC
S113007051015101510151015101510151015101EC
S113008051015101510151015101510151015101DC
S113009051015101EE000701200139015E01770190
S11300A09001A901C101C101C101C101C101C10185
S11300B0C101C101C101C101C101C101C101C1012C
S11300C0C101C101C101C101C101C101C101C1011C
S11300D0C101C101C101C101C101C1015E017701B9
S11300E09001A901F501FB01FB01FB01FB01E70103
S11300F0FB01FB01FB01FB01FB01EE01FB01FB0129
S1130100FB01FB01FB01E001FB01FB01FB01FB0126
S1130110FB01FB01FB01FB01FB01FB01FB01FB01FB
S1130120FB01FB01F501FB01FB01FB01FB01E70105
S1130130FB01FB01FB01FB01FB01EE01FB01FB01E8
S1130140FB01FB01FB01E00124022A022A022A022C
S11301502A0216022A022A022A022A022A021D025C
S11301602A022A022A022A022A020F022A022A0246
S11301702A022A022A022A022A022A022A022A021B
S11301802A022A022A022A0224022A022A022A0211
S11301902A0216022A022A022A022A022A021D021C
S11301A02A022A022A022A022A020F0211241FBE4C
S11301B0CFE5D8E0DEBFCDBF0E9445020C94060314
S11301C00C94000090E0FC01E154F109E432F105E3
S11301D008F067C0E65DFF4F0C940003413059F40A
S11301E02AB381E090E002C0880F991F6A95E2F774
S11301F0822B8ABB08952AB381E090E002C0880F65
S1130200991F6A95E2F7809582238ABB089541304D
S113021059F427B381E090E002C0880F991F6A95D2
S1130220E2F7822B87BB089527B381E090E002C0F8
S1130230880F991F6A95E2F78095822387BB0895FA
S1130240413059F424B381E090E002C0880F991F33
S11302506A95E2F7822B84BB089524B381E090E091
S113026002C0880F991F6A95E2F78095822384BBA8
S11302700895413059F421B381E090E002C0880F21
S1130280991F6A95E2F7822B81BB089521B381E01F
S113029090E002C0880F991F6A95E2F78095822347
S11302A081BB089590E0FC01E154F109E432F105C9
S11302B008F067C0E25BFF4F0C940003413059F42F
S11302C02BB381E090E002C0880F991F6A95E2F792
S11302D0822B8BBB08952BB381E090E002C0880F82
S11302E0991F6A95E2F7809582238BBB089541306C
S11302F059F428B381E090E002C0880F991F6A95F1
S1130300E2F7822B88BB089528B381E090E002C015
S1130310880F991F6A95E2F78095822388BB089518
S1130320413059F425B381E090E002C0880F991F51
S11303306A95E2F7822B85BB089525B381E090E0AE
S113034002C0880F991F6A95E2F78095822385BBC6
S11303500895413059F422B381E090E002C0880F3F
S1130360991F6A95E2F7822B82BB089522B381E03C
S113037090E002C0880F991F6A95E2F78095822366
S113038082BB0895CF93C62F78948130A1F120F0D9
S1130390823009F45FC077C08BB780648BBF40E0C4
S11303A062E084E60E94E2008C2F90E0FC01E154BC
S11303B0F109E233F105F8F4EE58FF4F0C94000311
S11303C085B7816085BF85B7826085BF14C085B756
S11303D08E7F85BF85B7826085BF0DC085B78E7F50
S11303E085BF85B78D7F85BF06C085B7816085BF12
S11303F085B78D7F85BF8BB780688BBF40E063E096
S113040084E60E94E2008C2F90E0FC01E154F109A3
S1130410E233F105F8F4EC55FF4F0C94000385B773
S1130420846085BF85B7886085BF14C085B78B7F1E
S113043085BF85B7886085BF0DC085B78B7F85BFB5
S113044085B7877F85BF06C085B7846085BF85B7BC
S1130450877F85BF8BB780628BBF40E062E082E616
S11304600E94E200C23541F018F4C63449F00BC0D2
S1130470C63631F0C23739F484B7806484BF03C010
S113048084B78F7B84BFCF91089561E680E00E949A
S1130490C20162E781E00E94C20166E682E00E9436
S11304A0C20141E065E084E60E94E20041E066E0CA
S11304B084E60E94E20041E067E084E60E94E200F4
S11304C040E065E084E60E94520140E066E084E694
S11304D00E94520140E067E084E60E945201F0CF9E
S11304E01F920F920FB60F9211242F933F934F93A5
S11304F05F936F937F938F939F93AF93BF93EF9388
S1130500FF9341E065E084E60E9452012FE38DE011
S113051093E0215080409040E1F700C00000FF913B
S1130520EF91BF91AF919F918F917F916F915F9167
S11305304F913F912F910F900FBE0F901F901895E0
S11305401F920F920FB60F9211242F933F934F9344
S11305505F936F937F938F939F93AF93BF93EF9327
S1130560FF9341E066E084E60E9452012FE38DE0B0
S113057093E0215080409040E1F700C00000FF91DB
S1130580EF91BF91AF919F918F917F916F915F9107
S11305904F913F912F910F900FBE0F901F90189580
S11305A01F920F920FB60F9211242F933F934F93E4
S11305B05F936F937F938F939F93AF93BF93EF93C7
S11305C0FF9341E067E084E60E9452012FE38DE04F
S11305D093E0215080409040E1F700C00000FF917B
S11305E0EF91BF91AF919F918F917F916F915F91A7
S11305F04F913F912F910F900FBE0F901F90189520
S1130600EE0FFF1F0590F491E02D0994F894FFCFAD
S9030000FC
